{
  "_format": "hh-sol-artifact-1",
  "contractName": "CryptobackGorillas",
  "sourceName": "contracts/CryptobackGorillas.sol",
  "abi": [
    {
      "inputs": [
        {
          "internalType": "string",
          "name": "_initBaseURI",
          "type": "string"
        },
        {
          "internalType": "uint256",
          "name": "_maxSupply",
          "type": "uint256"
        }
      ],
      "stateMutability": "nonpayable",
      "type": "constructor"
    },
    {
      "anonymous": false,
      "inputs": [
        {
          "indexed": true,
          "internalType": "address",
          "name": "owner",
          "type": "address"
        },
        {
          "indexed": true,
          "internalType": "address",
          "name": "approved",
          "type": "address"
        },
        {
          "indexed": true,
          "internalType": "uint256",
          "name": "tokenId",
          "type": "uint256"
        }
      ],
      "name": "Approval",
      "type": "event"
    },
    {
      "anonymous": false,
      "inputs": [
        {
          "indexed": true,
          "internalType": "address",
          "name": "owner",
          "type": "address"
        },
        {
          "indexed": true,
          "internalType": "address",
          "name": "operator",
          "type": "address"
        },
        {
          "indexed": false,
          "internalType": "bool",
          "name": "approved",
          "type": "bool"
        }
      ],
      "name": "ApprovalForAll",
      "type": "event"
    },
    {
      "anonymous": false,
      "inputs": [
        {
          "indexed": false,
          "internalType": "uint256[]",
          "name": "tokenIds",
          "type": "uint256[]"
        },
        {
          "indexed": false,
          "internalType": "address",
          "name": "buyer",
          "type": "address"
        }
      ],
      "name": "EventCBGMinted",
      "type": "event"
    },
    {
      "anonymous": false,
      "inputs": [
        {
          "indexed": false,
          "internalType": "string",
          "name": "_name",
          "type": "string"
        },
        {
          "components": [
            {
              "internalType": "uint64",
              "name": "start",
              "type": "uint64"
            },
            {
              "internalType": "uint64",
              "name": "end",
              "type": "uint64"
            },
            {
              "internalType": "int16",
              "name": "maxPerWallet",
              "type": "int16"
            },
            {
              "internalType": "uint8",
              "name": "maxPerTx",
              "type": "uint8"
            },
            {
              "internalType": "uint256",
              "name": "price",
              "type": "uint256"
            },
            {
              "internalType": "bool",
              "name": "paused",
              "type": "bool"
            }
          ],
          "indexed": false,
          "internalType": "struct CryptobackGorillas.Sale",
          "name": "_sale",
          "type": "tuple"
        }
      ],
      "name": "EventSaleChange",
      "type": "event"
    },
    {
      "anonymous": false,
      "inputs": [
        {
          "indexed": true,
          "internalType": "address",
          "name": "previousOwner",
          "type": "address"
        },
        {
          "indexed": true,
          "internalType": "address",
          "name": "newOwner",
          "type": "address"
        }
      ],
      "name": "OwnershipTransferred",
      "type": "event"
    },
    {
      "anonymous": false,
      "inputs": [
        {
          "indexed": true,
          "internalType": "address",
          "name": "from",
          "type": "address"
        },
        {
          "indexed": true,
          "internalType": "address",
          "name": "to",
          "type": "address"
        },
        {
          "indexed": true,
          "internalType": "uint256",
          "name": "tokenId",
          "type": "uint256"
        }
      ],
      "name": "Transfer",
      "type": "event"
    },
    {
      "inputs": [],
      "name": "CBGRemaining",
      "outputs": [
        {
          "internalType": "uint256",
          "name": "",
          "type": "uint256"
        }
      ],
      "stateMutability": "view",
      "type": "function"
    },
    {
      "inputs": [],
      "name": "MAX_PUBLIC",
      "outputs": [
        {
          "internalType": "int8",
          "name": "",
          "type": "int8"
        }
      ],
      "stateMutability": "view",
      "type": "function"
    },
    {
      "inputs": [
        {
          "internalType": "address",
          "name": "to",
          "type": "address"
        },
        {
          "internalType": "uint256",
          "name": "tokenId",
          "type": "uint256"
        }
      ],
      "name": "approve",
      "outputs": [],
      "stateMutability": "nonpayable",
      "type": "function"
    },
    {
      "inputs": [
        {
          "internalType": "address",
          "name": "owner",
          "type": "address"
        }
      ],
      "name": "balanceOf",
      "outputs": [
        {
          "internalType": "uint256",
          "name": "",
          "type": "uint256"
        }
      ],
      "stateMutability": "view",
      "type": "function"
    },
    {
      "inputs": [],
      "name": "baseURI",
      "outputs": [
        {
          "internalType": "string",
          "name": "",
          "type": "string"
        }
      ],
      "stateMutability": "view",
      "type": "function"
    },
    {
      "inputs": [
        {
          "internalType": "uint256",
          "name": "tokenId",
          "type": "uint256"
        }
      ],
      "name": "getApproved",
      "outputs": [
        {
          "internalType": "address",
          "name": "",
          "type": "address"
        }
      ],
      "stateMutability": "view",
      "type": "function"
    },
    {
      "inputs": [
        {
          "internalType": "address",
          "name": "_owner",
          "type": "address"
        }
      ],
      "name": "getBalanceOfOwner",
      "outputs": [
        {
          "internalType": "uint256",
          "name": "",
          "type": "uint256"
        }
      ],
      "stateMutability": "view",
      "type": "function"
    },
    {
      "inputs": [
        {
          "internalType": "address",
          "name": "_owner",
          "type": "address"
        }
      ],
      "name": "getWalletOfOwner",
      "outputs": [
        {
          "internalType": "uint256[]",
          "name": "",
          "type": "uint256[]"
        }
      ],
      "stateMutability": "view",
      "type": "function"
    },
    {
      "inputs": [
        {
          "internalType": "address",
          "name": "owner",
          "type": "address"
        },
        {
          "internalType": "address",
          "name": "operator",
          "type": "address"
        }
      ],
      "name": "isApprovedForAll",
      "outputs": [
        {
          "internalType": "bool",
          "name": "",
          "type": "bool"
        }
      ],
      "stateMutability": "view",
      "type": "function"
    },
    {
      "inputs": [
        {
          "internalType": "address",
          "name": "_user",
          "type": "address"
        }
      ],
      "name": "isWhitelisted",
      "outputs": [
        {
          "internalType": "bool",
          "name": "",
          "type": "bool"
        }
      ],
      "stateMutability": "view",
      "type": "function"
    },
    {
      "inputs": [
        {
          "internalType": "string",
          "name": "_name",
          "type": "string"
        },
        {
          "internalType": "address",
          "name": "_wallet",
          "type": "address"
        }
      ],
      "name": "minted",
      "outputs": [
        {
          "internalType": "uint16",
          "name": "",
          "type": "uint16"
        }
      ],
      "stateMutability": "view",
      "type": "function"
    },
    {
      "inputs": [],
      "name": "name",
      "outputs": [
        {
          "internalType": "string",
          "name": "",
          "type": "string"
        }
      ],
      "stateMutability": "view",
      "type": "function"
    },
    {
      "inputs": [],
      "name": "owner",
      "outputs": [
        {
          "internalType": "address",
          "name": "",
          "type": "address"
        }
      ],
      "stateMutability": "view",
      "type": "function"
    },
    {
      "inputs": [
        {
          "internalType": "uint256",
          "name": "tokenId",
          "type": "uint256"
        }
      ],
      "name": "ownerOf",
      "outputs": [
        {
          "internalType": "address",
          "name": "",
          "type": "address"
        }
      ],
      "stateMutability": "view",
      "type": "function"
    },
    {
      "inputs": [
        {
          "internalType": "uint256",
          "name": "",
          "type": "uint256"
        }
      ],
      "name": "parts",
      "outputs": [
        {
          "internalType": "address",
          "name": "wallet",
          "type": "address"
        },
        {
          "internalType": "uint256",
          "name": "salePart",
          "type": "uint256"
        },
        {
          "internalType": "uint256",
          "name": "royaltiesPart",
          "type": "uint256"
        }
      ],
      "stateMutability": "view",
      "type": "function"
    },
    {
      "inputs": [
        {
          "internalType": "string",
          "name": "_name",
          "type": "string"
        },
        {
          "internalType": "bool",
          "name": "_pause",
          "type": "bool"
        }
      ],
      "name": "pauseSale",
      "outputs": [],
      "stateMutability": "nonpayable",
      "type": "function"
    },
    {
      "inputs": [
        {
          "internalType": "uint8",
          "name": "_count",
          "type": "uint8"
        }
      ],
      "name": "publicSalesMint",
      "outputs": [],
      "stateMutability": "payable",
      "type": "function"
    },
    {
      "inputs": [
        {
          "internalType": "uint256",
          "name": "tokenId",
          "type": "uint256"
        }
      ],
      "name": "rawOwnerOf",
      "outputs": [
        {
          "internalType": "address",
          "name": "",
          "type": "address"
        }
      ],
      "stateMutability": "view",
      "type": "function"
    },
    {
      "inputs": [],
      "name": "renounceOwnership",
      "outputs": [],
      "stateMutability": "nonpayable",
      "type": "function"
    },
    {
      "inputs": [
        {
          "internalType": "address",
          "name": "from",
          "type": "address"
        },
        {
          "internalType": "address",
          "name": "to",
          "type": "address"
        },
        {
          "internalType": "uint256",
          "name": "tokenId",
          "type": "uint256"
        }
      ],
      "name": "safeTransferFrom",
      "outputs": [],
      "stateMutability": "nonpayable",
      "type": "function"
    },
    {
      "inputs": [
        {
          "internalType": "address",
          "name": "from",
          "type": "address"
        },
        {
          "internalType": "address",
          "name": "to",
          "type": "address"
        },
        {
          "internalType": "uint256",
          "name": "tokenId",
          "type": "uint256"
        },
        {
          "internalType": "bytes",
          "name": "_data",
          "type": "bytes"
        }
      ],
      "name": "safeTransferFrom",
      "outputs": [],
      "stateMutability": "nonpayable",
      "type": "function"
    },
    {
      "inputs": [
        {
          "internalType": "string",
          "name": "_name",
          "type": "string"
        }
      ],
      "name": "saleIsOpen",
      "outputs": [
        {
          "internalType": "bool",
          "name": "",
          "type": "bool"
        }
      ],
      "stateMutability": "view",
      "type": "function"
    },
    {
      "inputs": [
        {
          "internalType": "string",
          "name": "",
          "type": "string"
        }
      ],
      "name": "sales",
      "outputs": [
        {
          "internalType": "uint64",
          "name": "start",
          "type": "uint64"
        },
        {
          "internalType": "uint64",
          "name": "end",
          "type": "uint64"
        },
        {
          "internalType": "int16",
          "name": "maxPerWallet",
          "type": "int16"
        },
        {
          "internalType": "uint8",
          "name": "maxPerTx",
          "type": "uint8"
        },
        {
          "internalType": "uint256",
          "name": "price",
          "type": "uint256"
        },
        {
          "internalType": "bool",
          "name": "paused",
          "type": "bool"
        }
      ],
      "stateMutability": "view",
      "type": "function"
    },
    {
      "inputs": [
        {
          "internalType": "address",
          "name": "operator",
          "type": "address"
        },
        {
          "internalType": "bool",
          "name": "approved",
          "type": "bool"
        }
      ],
      "name": "setApprovalForAll",
      "outputs": [],
      "stateMutability": "nonpayable",
      "type": "function"
    },
    {
      "inputs": [
        {
          "internalType": "string",
          "name": "_newBaseURI",
          "type": "string"
        }
      ],
      "name": "setBaseURI",
      "outputs": [],
      "stateMutability": "nonpayable",
      "type": "function"
    },
    {
      "inputs": [
        {
          "internalType": "string",
          "name": "_name",
          "type": "string"
        },
        {
          "components": [
            {
              "internalType": "uint64",
              "name": "start",
              "type": "uint64"
            },
            {
              "internalType": "uint64",
              "name": "end",
              "type": "uint64"
            },
            {
              "internalType": "int16",
              "name": "maxPerWallet",
              "type": "int16"
            },
            {
              "internalType": "uint8",
              "name": "maxPerTx",
              "type": "uint8"
            },
            {
              "internalType": "uint256",
              "name": "price",
              "type": "uint256"
            },
            {
              "internalType": "bool",
              "name": "paused",
              "type": "bool"
            }
          ],
          "internalType": "struct CryptobackGorillas.Sale",
          "name": "_sale",
          "type": "tuple"
        }
      ],
      "name": "setSale",
      "outputs": [],
      "stateMutability": "nonpayable",
      "type": "function"
    },
    {
      "inputs": [
        {
          "internalType": "address[]",
          "name": "_users",
          "type": "address[]"
        }
      ],
      "name": "setWhitelistUsers",
      "outputs": [],
      "stateMutability": "nonpayable",
      "type": "function"
    },
    {
      "inputs": [],
      "name": "shareRoyaltiesPart",
      "outputs": [],
      "stateMutability": "nonpayable",
      "type": "function"
    },
    {
      "inputs": [],
      "name": "shareSalesPart",
      "outputs": [],
      "stateMutability": "nonpayable",
      "type": "function"
    },
    {
      "inputs": [
        {
          "internalType": "bytes4",
          "name": "interfaceId",
          "type": "bytes4"
        }
      ],
      "name": "supportsInterface",
      "outputs": [
        {
          "internalType": "bool",
          "name": "",
          "type": "bool"
        }
      ],
      "stateMutability": "view",
      "type": "function"
    },
    {
      "inputs": [],
      "name": "symbol",
      "outputs": [
        {
          "internalType": "string",
          "name": "",
          "type": "string"
        }
      ],
      "stateMutability": "view",
      "type": "function"
    },
    {
      "inputs": [
        {
          "internalType": "uint256",
          "name": "_amount",
          "type": "uint256"
        }
      ],
      "name": "teamMint",
      "outputs": [],
      "stateMutability": "nonpayable",
      "type": "function"
    },
    {
      "inputs": [
        {
          "internalType": "uint256",
          "name": "index",
          "type": "uint256"
        }
      ],
      "name": "tokenByIndex",
      "outputs": [
        {
          "internalType": "uint256",
          "name": "",
          "type": "uint256"
        }
      ],
      "stateMutability": "view",
      "type": "function"
    },
    {
      "inputs": [
        {
          "internalType": "address",
          "name": "owner",
          "type": "address"
        },
        {
          "internalType": "uint256",
          "name": "index",
          "type": "uint256"
        }
      ],
      "name": "tokenOfOwnerByIndex",
      "outputs": [
        {
          "internalType": "uint256",
          "name": "",
          "type": "uint256"
        }
      ],
      "stateMutability": "view",
      "type": "function"
    },
    {
      "inputs": [
        {
          "internalType": "uint256",
          "name": "tokenId",
          "type": "uint256"
        }
      ],
      "name": "tokenURI",
      "outputs": [
        {
          "internalType": "string",
          "name": "",
          "type": "string"
        }
      ],
      "stateMutability": "view",
      "type": "function"
    },
    {
      "inputs": [],
      "name": "totalSupply",
      "outputs": [
        {
          "internalType": "uint256",
          "name": "",
          "type": "uint256"
        }
      ],
      "stateMutability": "view",
      "type": "function"
    },
    {
      "inputs": [
        {
          "internalType": "address",
          "name": "from",
          "type": "address"
        },
        {
          "internalType": "address",
          "name": "to",
          "type": "address"
        },
        {
          "internalType": "uint256",
          "name": "tokenId",
          "type": "uint256"
        }
      ],
      "name": "transferFrom",
      "outputs": [],
      "stateMutability": "nonpayable",
      "type": "function"
    },
    {
      "inputs": [
        {
          "internalType": "address",
          "name": "newOwner",
          "type": "address"
        }
      ],
      "name": "transferOwnership",
      "outputs": [],
      "stateMutability": "nonpayable",
      "type": "function"
    },
    {
      "inputs": [
        {
          "internalType": "uint256",
          "name": "",
          "type": "uint256"
        }
      ],
      "name": "whitelistedAddresses",
      "outputs": [
        {
          "internalType": "address",
          "name": "",
          "type": "address"
        }
      ],
      "stateMutability": "view",
      "type": "function"
    },
    {
      "stateMutability": "payable",
      "type": "receive"
    }
  ],
  "bytecode": "0x60806040523480156200001157600080fd5b5060405162004405380380620044058339810160408190526200003491620006ad565b604080518082018252601281527143727970746f6261636b476f72696c6c617360701b60208083019182528351808501909452600384526243424760e81b908401528151919291620000899160009162000607565b5080516200009f90600190602084019062000607565b505050620000bc620000b6620003ee60201b60201c565b620003f2565b600b604051806060016040528073e21fa9e7d72d1a2dc163d46fb033839e0f678eed6001600160a01b0316815260200161014d815260200161014d815250908060018154018082558091505060019003906000526020600020906003020160009091909190915060008201518160000160006101000a8154816001600160a01b0302191690836001600160a01b0316021790555060208201518160010155604082015181600201555050600b6040518060600160405280733a78c8511c27b19cf5eb86ece96e76551a0cd2d56001600160a01b0316815260200161014d815260200161014d815250908060018154018082558091505060019003906000526020600020906003020160009091909190915060008201518160000160006101000a8154816001600160a01b0302191690836001600160a01b0316021790555060208201518160010155604082015181600201555050600b604051806060016040528073332d458ba4f0f2dc5d9523bbf2149358c0560f0e6001600160a01b0316815260200161014d815260200161014d815250908060018154018082558091505060019003906000526020600020906003020160009091909190915060008201518160000160006101000a8154816001600160a01b0302191690836001600160a01b0316021790555060208201518160010155604082015181600201555050600b604051806060016040528073feed5e1afb9d8911c3950b696add9ea40836b1646001600160a01b03168152602001600181526020016001815250908060018154018082558091505060019003906000526020600020906003020160009091909190915060008201518160000160006101000a8154816001600160a01b0302191690836001600160a01b031602179055506020820151816001015560408201518160020155505062000373826200044460201b60201c565b600c81905560408051808201825260068152655055424c494360d01b602080830191909152825160c081018452636252645081526502d044a331509181019190915260289281019290925260036060830152681b1ae4d6e2ef5000006080830152600060a0830152620003e691620004ac565b5050620008c5565b3390565b600a80546001600160a01b038381166001600160a01b0319831681179093556040519116919082907f8be0079c531659141344cd1fd0a4f28419497f9722a3daafe3b4186f6b6457e090600090a35050565b6200044e620003ee565b6001600160a01b031662000461620005f8565b6001600160a01b031614620004935760405162461bcd60e51b81526004016200048a906200080a565b60405180910390fd5b8051620004a890600d90602084019062000607565b5050565b620004b6620003ee565b6001600160a01b0316620004c9620005f8565b6001600160a01b031614620004f25760405162461bcd60e51b81526004016200048a906200080a565b80600f8360405162000505919062000765565b908152604080516020928190038301812084518154948601519386015160608701516001600160401b03199096166001600160401b0392831617600160401b600160801b0319166801000000000000000092909516919091029390931761ffff60801b1916600160801b61ffff600195860b16021760ff60901b1916600160901b60ff9095169490940293909317835560808401519183019190915560a0909201516002909101805460ff19169115159190911790557ffb31df2ce2b2b740f8fb39d618d9828a7cbe8ab00d233ac24e9b200d65b1c98190620005ec908490849062000783565b60405180910390a15050565b600a546001600160a01b031690565b828054620006159062000872565b90600052602060002090601f01602090048101928262000639576000855562000684565b82601f106200065457805160ff191683800117855562000684565b8280016001018555821562000684579182015b828111156200068457825182559160200191906001019062000667565b506200069292915062000696565b5090565b5b8082111562000692576000815560010162000697565b60008060408385031215620006c0578182fd5b82516001600160401b0380821115620006d7578384fd5b818501915085601f830112620006eb578384fd5b815181811115620007005762000700620008af565b604051601f8201601f191681016020018381118282101715620007275762000727620008af565b6040528181528382016020018810156200073f578586fd5b620007528260208301602087016200083f565b6020969096015195979596505050505050565b60008251620007798184602087016200083f565b9190910192915050565b600060e0825283518060e0840152610100620007a682828601602089016200083f565b80601f19601f8401168501019250505060018060401b0380845116602084015280602085015116604084015250604083015160010b606083015260ff6060840151166080830152608083015160a083015260a0830151151560c08301529392505050565b6020808252818101527f4f776e61626c653a2063616c6c6572206973206e6f7420746865206f776e6572604082015260600190565b60005b838110156200085c57818101518382015260200162000842565b838111156200086c576000848401525b50505050565b6002810460018216806200088757607f821691505b60208210811415620008a957634e487b7160e01b600052602260045260246000fd5b50919050565b634e487b7160e01b600052604160045260246000fd5b613b3080620008d56000396000f3fe6080604052600436106102a45760003560e01c80636c0360eb1161016e578063b88d4fde116100cb578063d052a17a1161007f578063e985e9c511610064578063e985e9c51461072a578063f2fde38b1461074a578063fbb37cf21461076a576102ab565b8063d052a17a146106ea578063e2310ef21461070a576102ab565b8063c87b56dd116100b0578063c87b56dd14610686578063c9eb4662146106a6578063d0141530146106d5576102ab565b8063b88d4fde14610646578063ba4e5c4914610666576102ab565b80638b1671781161012257806395d89b411161010757806395d89b41146105ef5780639753eac014610604578063a22cb46514610626576102ab565b80638b167178146105ad5780638da5cb5b146105da576102ab565b8063715018a611610153578063715018a61461056557806375de52951461057a5780637f81be691461058d576102ab565b80636c0360eb1461053057806370a0823114610545576102ab565b80632f745c591161021c57806346002b06116101d057806355f804b3116101b557806355f804b3146104c3578063627fdeab146104e35780636352211e14610510576102ab565b806346002b061461048e5780634f6ccce7146104a3576102ab565b80633af32abf116102015780633af32abf1461043957806340f9bbe21461045957806342842e0e1461046e576102ab565b80632f745c59146103f95780632fbba11514610419576102ab565b8063095ea7b311610273578063194944db11610258578063194944db1461039957806323b872dd146103b95780632beab4b7146103d9576102ab565b8063095ea7b31461035757806318160ddd14610377576102ab565b806301cacbc8146102b057806301ffc9a7146102d257806306fdde0314610308578063081812fc1461032a576102ab565b366102ab57005b600080fd5b3480156102bc57600080fd5b506102d06102cb366004612c69565b61079c565b005b3480156102de57600080fd5b506102f26102ed366004612b78565b610932565b6040516102ff9190612f61565b60405180910390f35b34801561031457600080fd5b5061031d610978565b6040516102ff9190612f7a565b34801561033657600080fd5b5061034a610345366004612d43565b610a0a565b6040516102ff9190612eb2565b34801561036357600080fd5b506102d0610372366004612ae0565b610a4d565b34801561038357600080fd5b5061038c610ae5565b6040516102ff9190612ea9565b3480156103a557600080fd5b506102f26103b4366004612bb0565b610aeb565b3480156103c557600080fd5b506102d06103d4366004612a03565b610bc5565b3480156103e557600080fd5b506102d06103f4366004612b09565b610bfd565b34801561040557600080fd5b5061038c610414366004612ae0565b610c54565b34801561042557600080fd5b506102d0610434366004612d43565b610ca9565b34801561044557600080fd5b506102f26104543660046129b7565b610d3c565b34801561046557600080fd5b506102d0610db5565b34801561047a57600080fd5b506102d0610489366004612a03565b610f29565b34801561049a57600080fd5b506102d0610f44565b3480156104af57600080fd5b5061038c6104be366004612d43565b61109b565b3480156104cf57600080fd5b506102d06104de366004612bb0565b6110f6565b3480156104ef57600080fd5b506105036104fe3660046129b7565b61114c565b6040516102ff9190612f23565b34801561051c57600080fd5b5061034a61052b366004612d43565b61120a565b34801561053c57600080fd5b5061031d61123f565b34801561055157600080fd5b5061038c6105603660046129b7565b6112cd565b34801561057157600080fd5b506102d0611311565b6102d0610588366004612d5b565b61135c565b34801561059957600080fd5b5061034a6105a8366004612d43565b61169a565b3480156105b957600080fd5b506105cd6105c8366004612be3565b6116b5565b6040516102ff9190613901565b3480156105e657600080fd5b5061034a6116fa565b3480156105fb57600080fd5b5061031d611709565b34801561061057600080fd5b50610619611718565b6040516102ff9190612f6c565b34801561063257600080fd5b506102d0610641366004612ab7565b61171d565b34801561065257600080fd5b506102d0610661366004612a3e565b6117eb565b34801561067257600080fd5b5061034a610681366004612d43565b61182a565b34801561069257600080fd5b5061031d6106a1366004612d43565b611854565b3480156106b257600080fd5b506106c66106c1366004612d43565b6118b3565b6040516102ff93929190612f02565b3480156106e157600080fd5b5061038c6118f0565b3480156106f657600080fd5b506102d0610705366004612c26565b6118f6565b34801561071657600080fd5b5061038c6107253660046129b7565b61196d565b34801561073657600080fd5b506102f26107453660046129d1565b611981565b34801561075657600080fd5b506102d06107653660046129b7565b6119af565b34801561077657600080fd5b5061078a610785366004612bb0565b611a1d565b6040516102ff96959493929190613910565b6107a4611a7d565b6001600160a01b03166107b56116fa565b6001600160a01b0316146107e45760405162461bcd60e51b81526004016107db9061351d565b60405180910390fd5b80600f836040516107f59190612df8565b9081526040805160209281900383018120845181549486015193860151606087015167ffffffffffffffff1990961667ffffffffffffffff928316177fffffffffffffffffffffffffffffffff0000000000000000ffffffffffffffff16680100000000000000009290951691909102939093177fffffffffffffffffffffffffffff0000ffffffffffffffffffffffffffffffff16600160801b61ffff600195860b1602177fffffffffffffffffffffffffff00ffffffffffffffffffffffffffffffffffff16600160901b60ff9095169490940293909317835560808401519183019190915560a0909201516002909101805460ff19169115159190911790557ffb31df2ce2b2b740f8fb39d618d9828a7cbe8ab00d233ac24e9b200d65b1c981906109269084908490612f8d565b60405180910390a15050565b60006001600160e01b031982167f780e9d63000000000000000000000000000000000000000000000000000000001480610970575061097082611a81565b90505b919050565b60606000805461098790613a18565b80601f01602080910402602001604051908101604052809291908181526020018280546109b390613a18565b8015610a005780601f106109d557610100808354040283529160200191610a00565b820191906000526020600020905b8154815290600101906020018083116109e357829003601f168201915b5050505050905090565b6000610a1582611af3565b610a315760405162461bcd60e51b81526004016107db906134d1565b506000908152600460205260409020546001600160a01b031690565b6000610a588261120a565b9050806001600160a01b0316836001600160a01b03161415610a8c5760405162461bcd60e51b81526004016107db906136a0565b806001600160a01b0316610a9e611a7d565b6001600160a01b03161480610aba5750610aba81610745611a7d565b610ad65760405162461bcd60e51b81526004016107db90613328565b610ae08383611b10565b505050565b60085490565b600080600f83604051610afe9190612df8565b9081526040519081900360200190205467ffffffffffffffff16118015610b4e5750600f82604051610b309190612df8565b9081526040519081900360200190205467ffffffffffffffff164210155b8015610b905750600f82604051610b659190612df8565b9081526040519081900360200190205467ffffffffffffffff68010000000000000000909104164211155b80156109705750600f82604051610ba79190612df8565b9081526040519081900360200190206002015460ff16159050919050565b610bd6610bd0611a7d565b82611b7e565b610bf25760405162461bcd60e51b81526004016107db9061376b565b610ae0838383611c03565b610c05611a7d565b6001600160a01b0316610c166116fa565b6001600160a01b031614610c3c5760405162461bcd60e51b81526004016107db9061351d565b610c48600e60006127ce565b610ae0600e83836127ec565b6000610c5f836112cd565b8210610c7d5760405162461bcd60e51b81526004016107db90612ff8565b506001600160a01b03821660009081526006602090815260408083208484529091529020545b92915050565b610cb1611a7d565b6001600160a01b0316610cc26116fa565b6001600160a01b031614610ce85760405162461bcd60e51b81526004016107db9061351d565b600f604051610cf690612e6b565b9081526040519081900360200190205467ffffffffffffffff164210610d2e5760405162461bcd60e51b81526004016107db90613643565b610d39816001611d30565b50565b6000805b600e54811015610dac57826001600160a01b0316600e8281548110610d7557634e487b7160e01b600052603260045260246000fd5b6000918252602090912001546001600160a01b03161415610d9a576001915050610973565b80610da481613a53565b915050610d40565b50600092915050565b610dbd611a7d565b6001600160a01b0316610dce6116fa565b6001600160a01b031614610df45760405162461bcd60e51b81526004016107db9061351d565b4780610e125760405162461bcd60e51b81526004016107db90613893565b60005b600b5460ff82161015610f17576000600b8260ff1681548110610e4857634e487b7160e01b600052603260045260246000fd5b9060005260206000209060030201600101541115610f0557610f05600b8260ff1681548110610e8757634e487b7160e01b600052603260045260246000fd5b906000526020600020906003020160000160009054906101000a90046001600160a01b0316610f006103e8610efa600b8660ff1681548110610ed957634e487b7160e01b600052603260045260246000fd5b90600052602060002090600302016001015487611e8090919063ffffffff16565b90611ecc565b611ef7565b80610f0f81613a6e565b915050610e15565b50610d39610f236116fa565b47611ef7565b610ae0838383604051806020016040528060008152506117eb565b610f4c611a7d565b6001600160a01b0316610f5d6116fa565b6001600160a01b031614610f835760405162461bcd60e51b81526004016107db9061351d565b4780610fa15760405162461bcd60e51b81526004016107db906138ca565b60005b600b5460ff82161015610f17576000600b8260ff1681548110610fd757634e487b7160e01b600052603260045260246000fd5b906000526020600020906003020160020154111561108957611089600b8260ff168154811061101657634e487b7160e01b600052603260045260246000fd5b906000526020600020906003020160000160009054906101000a90046001600160a01b0316610f006103e8610efa600b8660ff168154811061106857634e487b7160e01b600052603260045260246000fd5b90600052602060002090600302016002015487611e8090919063ffffffff16565b8061109381613a6e565b915050610fa4565b60006110a5610ae5565b82106110c35760405162461bcd60e51b81526004016107db906137ff565b600882815481106110e457634e487b7160e01b600052603260045260246000fd5b90600052602060002001549050919050565b6110fe611a7d565b6001600160a01b031661110f6116fa565b6001600160a01b0316146111355760405162461bcd60e51b81526004016107db9061351d565b805161114890600d90602084019061284f565b5050565b60606000611159836112cd565b905060008167ffffffffffffffff81111561118457634e487b7160e01b600052604160045260246000fd5b6040519080825280602002602001820160405280156111ad578160200160208202803683370190505b50905060005b82811015611202576111c58582610c54565b8282815181106111e557634e487b7160e01b600052603260045260246000fd5b6020908102919091010152806111fa81613a53565b9150506111b3565b509392505050565b6000818152600260205260408120546001600160a01b0316806109705760405162461bcd60e51b81526004016107db906133e2565b600d805461124c90613a18565b80601f016020809104026020016040519081016040528092919081815260200182805461127890613a18565b80156112c55780601f1061129a576101008083540402835291602001916112c5565b820191906000526020600020905b8154815290600101906020018083116112a857829003601f168201915b505050505081565b60006001600160a01b0382166112f55760405162461bcd60e51b81526004016107db90613385565b506001600160a01b031660009081526003602052604090205490565b611319611a7d565b6001600160a01b031661132a6116fa565b6001600160a01b0316146113505760405162461bcd60e51b81526004016107db9061351d565b61135a6000611f73565b565b604051806040016040528060068152602001655055424c494360d01b8152508161138582610aeb565b6113a15760405162461bcd60e51b81526004016107db906136fd565b60008160ff16116113c45760405162461bcd60e51b81526004016107db9061385c565b600c548160ff1611156113e95760405162461bcd60e51b81526004016107db90613146565b6000600c541161140b5760405162461bcd60e51b81526004016107db906132f1565b600f8260405161141b9190612df8565b9081526040519081900360200190205460ff600160901b909104811690821611156114585760405162461bcd60e51b81526004016107db90613552565b600f826040516114689190612df8565b90815260405190819003602001812054600160801b9004600190810b900b9060ff83169060109061149a908690612df8565b908152602001604051809103902060006114b2611a7d565b6001600160a01b031681526020810191909152604001600020546114da919061ffff1661394d565b60010b13156114fb5760405162461bcd60e51b81526004016107db90613283565b8060ff16600f8360405161150f9190612df8565b90815260200160405180910390206001015461152b919061399f565b34101561154a5760405162461bcd60e51b81526004016107db906137c8565b8060ff1660108360405161155e9190612df8565b90815260200160405180910390206000611576611a7d565b6001600160a01b031681526020810191909152604001600090812080549091906115a590849061ffff1661394d565b92506101000a81548161ffff021916908361ffff1602179055506115ca610454611a7d565b1561168c57602860000b60106040516115e290612e6b565b908152602001604051809103902060006115fa611a7d565b6001600160a01b031681526020810191909152604090810160002054905161ffff9091169060109061162b90612e7d565b90815260200160405180910390206000611643611a7d565b6001600160a01b0316815260208101919091526040016000205461166b919061ffff1661394d565b60010b131561168c5760405162461bcd60e51b81526004016107db90613283565b610ae08360ff166000611d30565b6000908152600260205260409020546001600160a01b031690565b60006010836040516116c79190612df8565b908152604080519182900360209081019092206001600160a01b0385166000908152925290205461ffff16905092915050565b600a546001600160a01b031690565b60606001805461098790613a18565b602881565b611725611a7d565b6001600160a01b0316826001600160a01b031614156117565760405162461bcd60e51b81526004016107db90613200565b8060056000611763611a7d565b6001600160a01b03908116825260208083019390935260409182016000908120918716808252919093529120805460ff1916921515929092179091556117a7611a7d565b6001600160a01b03167f17307eab39ab6107e8899845ad3d59bd9653f200f220920489ca2b5937696c31836040516117df9190612f61565b60405180910390a35050565b6117fc6117f6611a7d565b83611b7e565b6118185760405162461bcd60e51b81526004016107db9061376b565b61182484848484611fc5565b50505050565b600e818154811061183a57600080fd5b6000918252602090912001546001600160a01b0316905081565b606061185f82611af3565b61187b5760405162461bcd60e51b81526004016107db906135e6565b611883611ff8565b61188c83612007565b60405160200161189d929190612e14565b6040516020818303038152906040529050919050565b600b81815481106118c357600080fd5b60009182526020909120600390910201805460018201546002909201546001600160a01b03909116925083565b600c5481565b6118fe611a7d565b6001600160a01b031661190f6116fa565b6001600160a01b0316146119355760405162461bcd60e51b81526004016107db9061351d565b80600f836040516119469190612df8565b908152604051908190036020019020600201805491151560ff199092169190911790555050565b6000806119798361114c565b519392505050565b6001600160a01b03918216600090815260056020908152604080832093909416825291909152205460ff1690565b6119b7611a7d565b6001600160a01b03166119c86116fa565b6001600160a01b0316146119ee5760405162461bcd60e51b81526004016107db9061351d565b6001600160a01b038116611a145760405162461bcd60e51b81526004016107db906130b2565b610d3981611f73565b8051602081830181018051600f825292820191909301209152805460018083015460029093015467ffffffffffffffff8084169468010000000000000000850490911693600160801b810490930b92600160901b900460ff908116921686565b3390565b60006001600160e01b031982167f80ac58cd000000000000000000000000000000000000000000000000000000001480611ae457506001600160e01b031982167f5b5e139f00000000000000000000000000000000000000000000000000000000145b80610970575061097082612156565b6000908152600260205260409020546001600160a01b0316151590565b600081815260046020526040902080546001600160a01b0319166001600160a01b0384169081179091558190611b458261120a565b6001600160a01b03167f8c5be1e5ebec7d5bd14f71427d1e84f3dd0314c0f7b2291e5b200ac8c7c3b92560405160405180910390a45050565b6000611b8982611af3565b611ba55760405162461bcd60e51b81526004016107db90613237565b6000611bb08361120a565b9050806001600160a01b0316846001600160a01b03161480611beb5750836001600160a01b0316611be084610a0a565b6001600160a01b0316145b80611bfb5750611bfb8185611981565b949350505050565b826001600160a01b0316611c168261120a565b6001600160a01b031614611c3c5760405162461bcd60e51b81526004016107db90613589565b6001600160a01b038216611c625760405162461bcd60e51b81526004016107db906131a3565b611c6d838383612188565b611c78600082611b10565b6001600160a01b0383166000908152600360205260408120805460019290611ca19084906139be565b90915550506001600160a01b0382166000908152600360205260408120805460019290611ccf908490613973565b909155505060008181526002602052604080822080546001600160a01b0319166001600160a01b0386811691821790925591518493918716917fddf252ad1be2c89b69c2b068fc378daa952ba7f163c4a11628f55a4df523b3ef91a4505050565b60008267ffffffffffffffff811115611d5957634e487b7160e01b600052604160045260246000fd5b604051908082528060200260200182016040528015611d82578160200160208202803683370190505b50905060005b83811015611e3a576000600c548415611da857611da3610ae5565b611db0565b611db0612211565b611dba9190613a8e565b90506000611ddb600c60008154611dd090613a01565b9182905550836122f3565b9050611df8611de8611a7d565b611df3836001613973565b61236a565b80848481518110611e1957634e487b7160e01b600052603260045260246000fd5b60200260200101818152505050508080611e3290613a53565b915050611d88565b507fcda2b02cc46299e1582245cd141596e593c72d28aaabfde6d7e2930c122b808f81611e65611a7d565b604051611e73929190612f36565b60405180910390a1505050565b600082611e8f57506000610ca3565b6000611e9b838561399f565b905082611ea8858361398b565b14611ec55760405162461bcd60e51b81526004016107db90613474565b9392505050565b6000808211611eed5760405162461bcd60e51b81526004016107db906132ba565b611ec5828461398b565b6000826001600160a01b031682604051611f1090612ea6565b60006040518083038185875af1925050503d8060008114611f4d576040519150601f19603f3d011682016040523d82523d6000602084013e611f52565b606091505b5050905080610ae05760405162461bcd60e51b81526004016107db90613734565b600a80546001600160a01b038381166001600160a01b0319831681179093556040519116919082907f8be0079c531659141344cd1fd0a4f28419497f9722a3daafe3b4186f6b6457e090600090a35050565b611fd0848484611c03565b611fdc84848484612384565b6118245760405162461bcd60e51b81526004016107db90613055565b6060600d805461098790613a18565b606081612048575060408051808201909152600181527f30000000000000000000000000000000000000000000000000000000000000006020820152610973565b8160005b8115612072578061205c81613a53565b915061206b9050600a8361398b565b915061204c565b60008167ffffffffffffffff81111561209b57634e487b7160e01b600052604160045260246000fd5b6040519080825280601f01601f1916602001820160405280156120c5576020820181803683370190505b5090505b8415611bfb576120da6001836139be565b91506120e7600a86613a8e565b6120f2906030613973565b60f81b81838151811061211557634e487b7160e01b600052603260045260246000fd5b60200101907effffffffffffffffffffffffffffffffffffffffffffffffffffffffffffff1916908160001a90535061214f600a8661398b565b94506120c9565b6001600160e01b031981167f01ffc9a70000000000000000000000000000000000000000000000000000000014919050565b612193838383610ae0565b6001600160a01b0383166121af576121aa816124b8565b6121d2565b816001600160a01b0316836001600160a01b0316146121d2576121d283826124fc565b6001600160a01b0382166121ee576121e981612599565b610ae0565b826001600160a01b0316826001600160a01b031614610ae057610ae08282612672565b6000600c544261221f611a7d565b60405160200161222f9190612ddb565b6040516020818303038152906040528051906020012060001c612252919061398b565b42416040516020016122649190612ddb565b6040516020818303038152906040528051906020012060001c612287919061398b565b43456122934442613973565b61229d9190613973565b6122a79190613973565b6122b19190613973565b6122bb9190613973565b6040516020016122cb9190612ea9565b6040516020818303038152906040528051906020012060001c6122ee919061398b565b905090565b60008281526011602052604081205483901561231a57506000838152601160205260409020545b6000848152601160205260408082208590558482529020541561234e57600083815260116020526040808220548683529120555b6000928352601160205260408084209190915592825250205490565b6111488282604051806020016040528060008152506126b6565b6000612398846001600160a01b03166126e9565b156124ad57836001600160a01b031663150b7a026123b4611a7d565b8786866040518563ffffffff1660e01b81526004016123d69493929190612ec6565b602060405180830381600087803b1580156123f057600080fd5b505af1925050508015612420575060408051601f3d908101601f1916820190925261241d91810190612b94565b60015b61247a573d80801561244e576040519150601f19603f3d011682016040523d82523d6000602084013e612453565b606091505b5080516124725760405162461bcd60e51b81526004016107db90613055565b805181602001fd5b6001600160e01b0319167f150b7a0200000000000000000000000000000000000000000000000000000000149050611bfb565b506001949350505050565b600880546000838152600960205260408120829055600182018355919091527ff3f7a9fe364faab93b216da50a3214154f22a0a2b415b23a84c8169e8b636ee30155565b60006001612509846112cd565b61251391906139be565b600083815260076020526040902054909150808214612566576001600160a01b03841660009081526006602090815260408083208584528252808320548484528184208190558352600790915290208190555b5060009182526007602090815260408084208490556001600160a01b039094168352600681528383209183525290812055565b6008546000906125ab906001906139be565b600083815260096020526040812054600880549394509092849081106125e157634e487b7160e01b600052603260045260246000fd5b90600052602060002001549050806008838154811061261057634e487b7160e01b600052603260045260246000fd5b600091825260208083209091019290925582815260099091526040808220849055858252812055600880548061265657634e487b7160e01b600052603160045260246000fd5b6001900381819060005260206000200160009055905550505050565b600061267d836112cd565b6001600160a01b039093166000908152600660209081526040808320868452825280832085905593825260079052919091209190915550565b6126c083836126ef565b6126cd6000848484612384565b610ae05760405162461bcd60e51b81526004016107db90613055565b3b151590565b6001600160a01b0382166127155760405162461bcd60e51b81526004016107db9061343f565b61271e81611af3565b1561273b5760405162461bcd60e51b81526004016107db9061310f565b61274760008383612188565b6001600160a01b0382166000908152600360205260408120805460019290612770908490613973565b909155505060008181526002602052604080822080546001600160a01b0319166001600160a01b03861690811790915590518392907fddf252ad1be2c89b69c2b068fc378daa952ba7f163c4a11628f55a4df523b3ef908290a45050565b5080546000825590600052602060002090810190610d3991906128c3565b82805482825590600052602060002090810192821561283f579160200282015b8281111561283f5781546001600160a01b0319166001600160a01b0384351617825560209092019160019091019061280c565b5061284b9291506128c3565b5090565b82805461285b90613a18565b90600052602060002090601f01602090048101928261287d576000855561283f565b82601f1061289657805160ff191683800117855561283f565b8280016001018555821561283f579182015b8281111561283f5782518255916020019190600101906128a8565b5b8082111561284b57600081556001016128c4565b600067ffffffffffffffff808411156128f3576128f3613ace565b604051601f8501601f19168101602001828111828210171561291757612917613ace565b60405284815291508183850186101561292f57600080fd5b8484602083013760006020868301015250509392505050565b80356001600160a01b038116811461097357600080fd5b8035801515811461097357600080fd5b600082601f83011261297f578081fd5b611ec5838335602085016128d8565b803567ffffffffffffffff8116811461097357600080fd5b803560ff8116811461097357600080fd5b6000602082840312156129c8578081fd5b611ec582612948565b600080604083850312156129e3578081fd5b6129ec83612948565b91506129fa60208401612948565b90509250929050565b600080600060608486031215612a17578081fd5b612a2084612948565b9250612a2e60208501612948565b9150604084013590509250925092565b60008060008060808587031215612a53578081fd5b612a5c85612948565b9350612a6a60208601612948565b925060408501359150606085013567ffffffffffffffff811115612a8c578182fd5b8501601f81018713612a9c578182fd5b612aab878235602084016128d8565b91505092959194509250565b60008060408385031215612ac9578182fd5b612ad283612948565b91506129fa6020840161295f565b60008060408385031215612af2578182fd5b612afb83612948565b946020939093013593505050565b60008060208385031215612b1b578182fd5b823567ffffffffffffffff80821115612b32578384fd5b818501915085601f830112612b45578384fd5b813581811115612b53578485fd5b8660208083028501011115612b66578485fd5b60209290920196919550909350505050565b600060208284031215612b89578081fd5b8135611ec581613ae4565b600060208284031215612ba5578081fd5b8151611ec581613ae4565b600060208284031215612bc1578081fd5b813567ffffffffffffffff811115612bd7578182fd5b611bfb8482850161296f565b60008060408385031215612bf5578182fd5b823567ffffffffffffffff811115612c0b578283fd5b612c178582860161296f565b9250506129fa60208401612948565b60008060408385031215612c38578182fd5b823567ffffffffffffffff811115612c4e578283fd5b612c5a8582860161296f565b9250506129fa6020840161295f565b60008082840360e0811215612c7c578283fd5b833567ffffffffffffffff80821115612c93578485fd5b612c9f8783880161296f565b945060c0601f1984011215612cb2578384fd5b604051925060c0830191508282108183111715612cd157612cd1613ace565b50604052612ce16020850161298e565b8152612cef6040850161298e565b602082015260608401358060010b8114612d07578283fd5b6040820152612d18608085016129a6565b606082015260a08401356080820152612d3360c0850161295f565b60a0820152809150509250929050565b600060208284031215612d54578081fd5b5035919050565b600060208284031215612d6c578081fd5b611ec5826129a6565b6000815180845260208085019450808401835b83811015612da457815187529582019590820190600101612d88565b509495945050505050565b60008151808452612dc78160208601602086016139d5565b601f01601f19169290920160200192915050565b60609190911b6bffffffffffffffffffffffff1916815260140190565b60008251612e0a8184602087016139d5565b9190910192915050565b60008351612e268184602088016139d5565b835190830190612e3a8183602088016139d5565b7f2e6a736f6e0000000000000000000000000000000000000000000000000000009101908152600501949350505050565b655055424c494360d01b815260060190565b7f50524553414c4553000000000000000000000000000000000000000000000000815260080190565b90565b90815260200190565b6001600160a01b0391909116815260200190565b60006001600160a01b03808716835280861660208401525083604083015260806060830152612ef86080830184612daf565b9695505050505050565b6001600160a01b039390931683526020830191909152604082015260600190565b600060208252611ec56020830184612d75565b600060408252612f496040830185612d75565b90506001600160a01b03831660208301529392505050565b901515815260200190565b60009190910b815260200190565b600060208252611ec56020830184612daf565b600060e08252612fa060e0830185612daf565b905067ffffffffffffffff80845116602084015280602085015116604084015250604083015160010b606083015260ff6060840151166080830152608083015160a083015260a0830151151560c08301529392505050565b6020808252602b908201527f455243373231456e756d657261626c653a206f776e657220696e646578206f7560408201527f74206f6620626f756e6473000000000000000000000000000000000000000000606082015260800190565b60208082526032908201527f4552433732313a207472616e7366657220746f206e6f6e20455243373231526560408201527f63656976657220696d706c656d656e7465720000000000000000000000000000606082015260800190565b60208082526026908201527f4f776e61626c653a206e6577206f776e657220697320746865207a65726f206160408201527f6464726573730000000000000000000000000000000000000000000000000000606082015260800190565b6020808252601c908201527f4552433732313a20746f6b656e20616c7265616479206d696e74656400000000604082015260600190565b60208082526033908201527f4342473a2045786365656473206d6178696d756d20737570706c792e2054727960408201527f20746f206d696e74206c657373204e4654732e00000000000000000000000000606082015260800190565b60208082526024908201527f4552433732313a207472616e7366657220746f20746865207a65726f2061646460408201527f7265737300000000000000000000000000000000000000000000000000000000606082015260800190565b60208082526019908201527f4552433732313a20617070726f766520746f2063616c6c657200000000000000604082015260600190565b6020808252602c908201527f4552433732313a206f70657261746f7220717565727920666f72206e6f6e657860408201526b34b9ba32b73a103a37b5b2b760a11b606082015260800190565b60208082526019908201527f4342473a204d6178207065722077616c6c6574206c696d697400000000000000604082015260600190565b6020808252601a908201527f536166654d6174683a206469766973696f6e206279207a65726f000000000000604082015260600190565b6020808252601a908201527f4342473a20436f6c6c656374696f6e20697320536f6c644f7574000000000000604082015260600190565b60208082526038908201527f4552433732313a20617070726f76652063616c6c6572206973206e6f74206f7760408201527f6e6572206e6f7220617070726f76656420666f7220616c6c0000000000000000606082015260800190565b6020808252602a908201527f4552433732313a2062616c616e636520717565727920666f7220746865207a6560408201527f726f206164647265737300000000000000000000000000000000000000000000606082015260800190565b60208082526029908201527f4552433732313a206f776e657220717565727920666f72206e6f6e657869737460408201527f656e7420746f6b656e0000000000000000000000000000000000000000000000606082015260800190565b6020808252818101527f4552433732313a206d696e7420746f20746865207a65726f2061646472657373604082015260600190565b60208082526021908201527f536166654d6174683a206d756c7469706c69636174696f6e206f766572666c6f60408201527f7700000000000000000000000000000000000000000000000000000000000000606082015260800190565b6020808252602c908201527f4552433732313a20617070726f76656420717565727920666f72206e6f6e657860408201526b34b9ba32b73a103a37b5b2b760a11b606082015260800190565b6020808252818101527f4f776e61626c653a2063616c6c6572206973206e6f7420746865206f776e6572604082015260600190565b60208082526015908201527f4342473a204d617820706572207478206c696d69740000000000000000000000604082015260600190565b60208082526029908201527f4552433732313a207472616e73666572206f6620746f6b656e2074686174206960408201527f73206e6f74206f776e0000000000000000000000000000000000000000000000606082015260800190565b6020808252602f908201527f4552433732314d657461646174613a2055524920717565727920666f72206e6f60408201527f6e6578697374656e7420746f6b656e0000000000000000000000000000000000606082015260800190565b6020808252602a908201527f4342473a204d757374206265206578656375746564206265666f72652070726560408201527f73616c6573206d696e7400000000000000000000000000000000000000000000606082015260800190565b60208082526021908201527f4552433732313a20617070726f76616c20746f2063757272656e74206f776e6560408201527f7200000000000000000000000000000000000000000000000000000000000000606082015260800190565b60208082526013908201527f4342473a2053616c6573206e6f74206f70656e00000000000000000000000000604082015260600190565b60208082526010908201527f5472616e73666572206661696c65642e00000000000000000000000000000000604082015260600190565b60208082526031908201527f4552433732313a207472616e736665722063616c6c6572206973206e6f74206f60408201527f776e6572206e6f7220617070726f766564000000000000000000000000000000606082015260800190565b60208082526016908201527f4342473a20496e737566696369656e742066756e647300000000000000000000604082015260600190565b6020808252602c908201527f455243373231456e756d657261626c653a20676c6f62616c20696e646578206f60408201527f7574206f6620626f756e64730000000000000000000000000000000000000000606082015260800190565b60208082526017908201527f4342473a2043616e206e6f74206d696e742030204e4654000000000000000000604082015260600190565b60208082526011908201527f53616c65732042616c616e6365203d2030000000000000000000000000000000604082015260600190565b60208082526014908201527f436f6e74726163742042616c616e6365203d2030000000000000000000000000604082015260600190565b61ffff91909116815260200190565b67ffffffffffffffff968716815294909516602085015260019290920b604084015260ff166060830152608082015290151560a082015260c00190565b600061ffff80831681851680830382111561396a5761396a613aa2565b01949350505050565b6000821982111561398657613986613aa2565b500190565b60008261399a5761399a613ab8565b500490565b60008160001904831182151516156139b9576139b9613aa2565b500290565b6000828210156139d0576139d0613aa2565b500390565b60005b838110156139f05781810151838201526020016139d8565b838111156118245750506000910152565b600081613a1057613a10613aa2565b506000190190565b600281046001821680613a2c57607f821691505b60208210811415613a4d57634e487b7160e01b600052602260045260246000fd5b50919050565b6000600019821415613a6757613a67613aa2565b5060010190565b600060ff821660ff811415613a8557613a85613aa2565b60010192915050565b600082613a9d57613a9d613ab8565b500690565b634e487b7160e01b600052601160045260246000fd5b634e487b7160e01b600052601260045260246000fd5b634e487b7160e01b600052604160045260246000fd5b6001600160e01b031981168114610d3957600080fdfea26469706673582212206174e4465318c431dd5b901ad13eb3ce7fde395cb868b294c0f414a021d9e1fe64736f6c63430008000033",
  "linkReferences": {},
  "deployedLinkReferences": {}
}