{
  "_format": "hh-sol-artifact-1",
  "contractName": "ERC721",
  "sourceName": "contracts/CryptobackGorillas.sol",
  "abi": [
    {
      "inputs": [
        {
          "internalType": "string",
          "name": "name_",
          "type": "string"
        },
        {
          "internalType": "string",
          "name": "symbol_",
          "type": "string"
        }
      ],
      "stateMutability": "nonpayable",
      "type": "constructor"
    },
    {
      "anonymous": false,
      "inputs": [
        {
          "indexed": true,
          "internalType": "address",
          "name": "owner",
          "type": "address"
        },
        {
          "indexed": true,
          "internalType": "address",
          "name": "approved",
          "type": "address"
        },
        {
          "indexed": true,
          "internalType": "uint256",
          "name": "tokenId",
          "type": "uint256"
        }
      ],
      "name": "Approval",
      "type": "event"
    },
    {
      "anonymous": false,
      "inputs": [
        {
          "indexed": true,
          "internalType": "address",
          "name": "owner",
          "type": "address"
        },
        {
          "indexed": true,
          "internalType": "address",
          "name": "operator",
          "type": "address"
        },
        {
          "indexed": false,
          "internalType": "bool",
          "name": "approved",
          "type": "bool"
        }
      ],
      "name": "ApprovalForAll",
      "type": "event"
    },
    {
      "anonymous": false,
      "inputs": [
        {
          "indexed": true,
          "internalType": "address",
          "name": "from",
          "type": "address"
        },
        {
          "indexed": true,
          "internalType": "address",
          "name": "to",
          "type": "address"
        },
        {
          "indexed": true,
          "internalType": "uint256",
          "name": "tokenId",
          "type": "uint256"
        }
      ],
      "name": "Transfer",
      "type": "event"
    },
    {
      "inputs": [
        {
          "internalType": "address",
          "name": "to",
          "type": "address"
        },
        {
          "internalType": "uint256",
          "name": "tokenId",
          "type": "uint256"
        }
      ],
      "name": "approve",
      "outputs": [],
      "stateMutability": "nonpayable",
      "type": "function"
    },
    {
      "inputs": [
        {
          "internalType": "address",
          "name": "owner",
          "type": "address"
        }
      ],
      "name": "balanceOf",
      "outputs": [
        {
          "internalType": "uint256",
          "name": "",
          "type": "uint256"
        }
      ],
      "stateMutability": "view",
      "type": "function"
    },
    {
      "inputs": [
        {
          "internalType": "uint256",
          "name": "tokenId",
          "type": "uint256"
        }
      ],
      "name": "getApproved",
      "outputs": [
        {
          "internalType": "address",
          "name": "",
          "type": "address"
        }
      ],
      "stateMutability": "view",
      "type": "function"
    },
    {
      "inputs": [
        {
          "internalType": "address",
          "name": "owner",
          "type": "address"
        },
        {
          "internalType": "address",
          "name": "operator",
          "type": "address"
        }
      ],
      "name": "isApprovedForAll",
      "outputs": [
        {
          "internalType": "bool",
          "name": "",
          "type": "bool"
        }
      ],
      "stateMutability": "view",
      "type": "function"
    },
    {
      "inputs": [],
      "name": "name",
      "outputs": [
        {
          "internalType": "string",
          "name": "",
          "type": "string"
        }
      ],
      "stateMutability": "view",
      "type": "function"
    },
    {
      "inputs": [
        {
          "internalType": "uint256",
          "name": "tokenId",
          "type": "uint256"
        }
      ],
      "name": "ownerOf",
      "outputs": [
        {
          "internalType": "address",
          "name": "",
          "type": "address"
        }
      ],
      "stateMutability": "view",
      "type": "function"
    },
    {
      "inputs": [
        {
          "internalType": "uint256",
          "name": "tokenId",
          "type": "uint256"
        }
      ],
      "name": "rawOwnerOf",
      "outputs": [
        {
          "internalType": "address",
          "name": "",
          "type": "address"
        }
      ],
      "stateMutability": "view",
      "type": "function"
    },
    {
      "inputs": [
        {
          "internalType": "address",
          "name": "from",
          "type": "address"
        },
        {
          "internalType": "address",
          "name": "to",
          "type": "address"
        },
        {
          "internalType": "uint256",
          "name": "tokenId",
          "type": "uint256"
        }
      ],
      "name": "safeTransferFrom",
      "outputs": [],
      "stateMutability": "nonpayable",
      "type": "function"
    },
    {
      "inputs": [
        {
          "internalType": "address",
          "name": "from",
          "type": "address"
        },
        {
          "internalType": "address",
          "name": "to",
          "type": "address"
        },
        {
          "internalType": "uint256",
          "name": "tokenId",
          "type": "uint256"
        },
        {
          "internalType": "bytes",
          "name": "_data",
          "type": "bytes"
        }
      ],
      "name": "safeTransferFrom",
      "outputs": [],
      "stateMutability": "nonpayable",
      "type": "function"
    },
    {
      "inputs": [
        {
          "internalType": "address",
          "name": "operator",
          "type": "address"
        },
        {
          "internalType": "bool",
          "name": "approved",
          "type": "bool"
        }
      ],
      "name": "setApprovalForAll",
      "outputs": [],
      "stateMutability": "nonpayable",
      "type": "function"
    },
    {
      "inputs": [
        {
          "internalType": "bytes4",
          "name": "interfaceId",
          "type": "bytes4"
        }
      ],
      "name": "supportsInterface",
      "outputs": [
        {
          "internalType": "bool",
          "name": "",
          "type": "bool"
        }
      ],
      "stateMutability": "view",
      "type": "function"
    },
    {
      "inputs": [],
      "name": "symbol",
      "outputs": [
        {
          "internalType": "string",
          "name": "",
          "type": "string"
        }
      ],
      "stateMutability": "view",
      "type": "function"
    },
    {
      "inputs": [
        {
          "internalType": "uint256",
          "name": "tokenId",
          "type": "uint256"
        }
      ],
      "name": "tokenURI",
      "outputs": [
        {
          "internalType": "string",
          "name": "",
          "type": "string"
        }
      ],
      "stateMutability": "view",
      "type": "function"
    },
    {
      "inputs": [
        {
          "internalType": "address",
          "name": "from",
          "type": "address"
        },
        {
          "internalType": "address",
          "name": "to",
          "type": "address"
        },
        {
          "internalType": "uint256",
          "name": "tokenId",
          "type": "uint256"
        }
      ],
      "name": "transferFrom",
      "outputs": [],
      "stateMutability": "nonpayable",
      "type": "function"
    }
  ],
  "bytecode": "0x60806040523480156200001157600080fd5b5060405162001711380380620017118339810160408190526200003491620001b9565b81516200004990600090602085019062000068565b5080516200005f90600190602084019062000068565b50505062000273565b828054620000769062000220565b90600052602060002090601f0160209004810192826200009a5760008555620000e5565b82601f10620000b557805160ff1916838001178555620000e5565b82800160010185558215620000e5579182015b82811115620000e5578251825591602001919060010190620000c8565b50620000f3929150620000f7565b5090565b5b80821115620000f35760008155600101620000f8565b600082601f8301126200011f578081fd5b81516001600160401b03808211156200013c576200013c6200025d565b6040516020601f8401601f19168201810183811183821017156200016457620001646200025d565b60405283825285840181018710156200017b578485fd5b8492505b838310156200019e57858301810151828401820152918201916200017f565b83831115620001af57848185840101525b5095945050505050565b60008060408385031215620001cc578182fd5b82516001600160401b0380821115620001e3578384fd5b620001f1868387016200010e565b9350602085015191508082111562000207578283fd5b5062000216858286016200010e565b9150509250929050565b6002810460018216806200023557607f821691505b602082108114156200025757634e487b7160e01b600052602260045260246000fd5b50919050565b634e487b7160e01b600052604160045260246000fd5b61148e80620002836000396000f3fe608060405234801561001057600080fd5b50600436106100ea5760003560e01c806370a082311161008c578063a22cb46511610066578063a22cb465146101d6578063b88d4fde146101e9578063c87b56dd146101fc578063e985e9c51461020f576100ea565b806370a082311461019b5780637f81be69146101bb57806395d89b41146101ce576100ea565b8063095ea7b3116100c8578063095ea7b31461014d57806323b872dd1461016257806342842e0e146101755780636352211e14610188576100ea565b806301ffc9a7146100ef57806306fdde0314610118578063081812fc1461012d575b600080fd5b6101026100fd366004610dee565b610222565b60405161010f9190610ee9565b60405180910390f35b61012061029c565b60405161010f9190610ef4565b61014061013b366004610e26565b61032e565b60405161010f9190610e99565b61016061015b366004610dc5565b61037a565b005b610160610170366004610c84565b610412565b610160610183366004610c84565b61044a565b610140610196366004610e26565b610465565b6101ae6101a9366004610c38565b61049a565b60405161010f919061131b565b6101406101c9366004610e26565b6104de565b6101206104f9565b6101606101e4366004610d8b565b610508565b6101606101f7366004610cbf565b6105d6565b61012061020a366004610e26565b610615565b61010261021d366004610c52565b610698565b60006001600160e01b031982167f80ac58cd00000000000000000000000000000000000000000000000000000000148061028557506001600160e01b031982167f5b5e139f00000000000000000000000000000000000000000000000000000000145b806102945750610294826106c6565b90505b919050565b6060600080546102ab90611393565b80601f01602080910402602001604051908101604052809291908181526020018280546102d790611393565b80156103245780601f106102f957610100808354040283529160200191610324565b820191906000526020600020905b81548152906001019060200180831161030757829003601f168201915b5050505050905090565b6000610339826106f8565b61035e5760405162461bcd60e51b81526004016103559061115b565b60405180910390fd5b506000908152600460205260409020546001600160a01b031690565b600061038582610465565b9050806001600160a01b0316836001600160a01b031614156103b95760405162461bcd60e51b815260040161035590611261565b806001600160a01b03166103cb610715565b6001600160a01b031614806103e757506103e78161021d610715565b6104035760405162461bcd60e51b815260040161035590611044565b61040d8383610719565b505050565b61042361041d610715565b82610794565b61043f5760405162461bcd60e51b8152600401610355906112be565b61040d838383610819565b61040d838383604051806020016040528060008152506105d6565b6000818152600260205260408120546001600160a01b0316806102945760405162461bcd60e51b8152600401610355906110fe565b60006001600160a01b0382166104c25760405162461bcd60e51b8152600401610355906110a1565b506001600160a01b031660009081526003602052604090205490565b6000908152600260205260409020546001600160a01b031690565b6060600180546102ab90611393565b610510610715565b6001600160a01b0316826001600160a01b031614156105415760405162461bcd60e51b815260040161035590610fc1565b806005600061054e610715565b6001600160a01b03908116825260208083019390935260409182016000908120918716808252919093529120805460ff191692151592909217909155610592610715565b6001600160a01b03167f17307eab39ab6107e8899845ad3d59bd9653f200f220920489ca2b5937696c31836040516105ca9190610ee9565b60405180910390a35050565b6105e76105e1610715565b83610794565b6106035760405162461bcd60e51b8152600401610355906112be565b61060f84848484610953565b50505050565b6060610620826106f8565b61063c5760405162461bcd60e51b815260040161035590611204565b6000610646610986565b905060008151116106665760405180602001604052806000815250610691565b8061067084610998565b604051602001610681929190610e6a565b6040516020818303038152906040525b9392505050565b6001600160a01b03918216600090815260056020908152604080832093909416825291909152205460ff1690565b6001600160e01b031981167f01ffc9a70000000000000000000000000000000000000000000000000000000014919050565b6000908152600260205260409020546001600160a01b0316151590565b3390565b6000818152600460205260409020805473ffffffffffffffffffffffffffffffffffffffff19166001600160a01b038416908117909155819061075b82610465565b6001600160a01b03167f8c5be1e5ebec7d5bd14f71427d1e84f3dd0314c0f7b2291e5b200ac8c7c3b92560405160405180910390a45050565b600061079f826106f8565b6107bb5760405162461bcd60e51b815260040161035590610ff8565b60006107c683610465565b9050806001600160a01b0316846001600160a01b031614806108015750836001600160a01b03166107f68461032e565b6001600160a01b0316145b8061081157506108118185610698565b949350505050565b826001600160a01b031661082c82610465565b6001600160a01b0316146108525760405162461bcd60e51b8152600401610355906111a7565b6001600160a01b0382166108785760405162461bcd60e51b815260040161035590610f64565b61088383838361040d565b61088e600082610719565b6001600160a01b03831660009081526003602052604081208054600192906108b7908490611350565b90915550506001600160a01b03821660009081526003602052604081208054600192906108e5908490611324565b9091555050600081815260026020526040808220805473ffffffffffffffffffffffffffffffffffffffff19166001600160a01b0386811691821790925591518493918716917fddf252ad1be2c89b69c2b068fc378daa952ba7f163c4a11628f55a4df523b3ef91a4505050565b61095e848484610819565b61096a84848484610ae7565b61060f5760405162461bcd60e51b815260040161035590610f07565b60408051602081019091526000815290565b6060816109d9575060408051808201909152600181527f30000000000000000000000000000000000000000000000000000000000000006020820152610297565b8160005b8115610a0357806109ed816113ce565b91506109fc9050600a8361133c565b91506109dd565b60008167ffffffffffffffff811115610a2c57634e487b7160e01b600052604160045260246000fd5b6040519080825280601f01601f191660200182016040528015610a56576020820181803683370190505b5090505b841561081157610a6b600183611350565b9150610a78600a866113e9565b610a83906030611324565b60f81b818381518110610aa657634e487b7160e01b600052603260045260246000fd5b60200101907effffffffffffffffffffffffffffffffffffffffffffffffffffffffffffff1916908160001a905350610ae0600a8661133c565b9450610a5a565b6000610afb846001600160a01b0316610c1b565b15610c1057836001600160a01b031663150b7a02610b17610715565b8786866040518563ffffffff1660e01b8152600401610b399493929190610ead565b602060405180830381600087803b158015610b5357600080fd5b505af1925050508015610b83575060408051601f3d908101601f19168201909252610b8091810190610e0a565b60015b610bdd573d808015610bb1576040519150601f19603f3d011682016040523d82523d6000602084013e610bb6565b606091505b508051610bd55760405162461bcd60e51b815260040161035590610f07565b805181602001fd5b6001600160e01b0319167f150b7a0200000000000000000000000000000000000000000000000000000000149050610811565b506001949350505050565b3b151590565b80356001600160a01b038116811461029757600080fd5b600060208284031215610c49578081fd5b61069182610c21565b60008060408385031215610c64578081fd5b610c6d83610c21565b9150610c7b60208401610c21565b90509250929050565b600080600060608486031215610c98578081fd5b610ca184610c21565b9250610caf60208501610c21565b9150604084013590509250925092565b60008060008060808587031215610cd4578081fd5b610cdd85610c21565b93506020610cec818701610c21565b935060408601359250606086013567ffffffffffffffff80821115610d0f578384fd5b818801915088601f830112610d22578384fd5b813581811115610d3457610d34611429565b604051601f8201601f1916810185018381118282101715610d5757610d57611429565b60405281815283820185018b1015610d6d578586fd5b81858501868301379081019093019390935250939692955090935050565b60008060408385031215610d9d578182fd5b610da683610c21565b915060208301358015158114610dba578182fd5b809150509250929050565b60008060408385031215610dd7578182fd5b610de083610c21565b946020939093013593505050565b600060208284031215610dff578081fd5b81356106918161143f565b600060208284031215610e1b578081fd5b81516106918161143f565b600060208284031215610e37578081fd5b5035919050565b60008151808452610e56816020860160208601611367565b601f01601f19169290920160200192915050565b60008351610e7c818460208801611367565b835190830190610e90818360208801611367565b01949350505050565b6001600160a01b0391909116815260200190565b60006001600160a01b03808716835280861660208401525083604083015260806060830152610edf6080830184610e3e565b9695505050505050565b901515815260200190565b6000602082526106916020830184610e3e565b60208082526032908201527f4552433732313a207472616e7366657220746f206e6f6e20455243373231526560408201527f63656976657220696d706c656d656e7465720000000000000000000000000000606082015260800190565b60208082526024908201527f4552433732313a207472616e7366657220746f20746865207a65726f2061646460408201527f7265737300000000000000000000000000000000000000000000000000000000606082015260800190565b60208082526019908201527f4552433732313a20617070726f766520746f2063616c6c657200000000000000604082015260600190565b6020808252602c908201527f4552433732313a206f70657261746f7220717565727920666f72206e6f6e657860408201526b34b9ba32b73a103a37b5b2b760a11b606082015260800190565b60208082526038908201527f4552433732313a20617070726f76652063616c6c6572206973206e6f74206f7760408201527f6e6572206e6f7220617070726f76656420666f7220616c6c0000000000000000606082015260800190565b6020808252602a908201527f4552433732313a2062616c616e636520717565727920666f7220746865207a6560408201527f726f206164647265737300000000000000000000000000000000000000000000606082015260800190565b60208082526029908201527f4552433732313a206f776e657220717565727920666f72206e6f6e657869737460408201527f656e7420746f6b656e0000000000000000000000000000000000000000000000606082015260800190565b6020808252602c908201527f4552433732313a20617070726f76656420717565727920666f72206e6f6e657860408201526b34b9ba32b73a103a37b5b2b760a11b606082015260800190565b60208082526029908201527f4552433732313a207472616e73666572206f6620746f6b656e2074686174206960408201527f73206e6f74206f776e0000000000000000000000000000000000000000000000606082015260800190565b6020808252602f908201527f4552433732314d657461646174613a2055524920717565727920666f72206e6f60408201527f6e6578697374656e7420746f6b656e0000000000000000000000000000000000606082015260800190565b60208082526021908201527f4552433732313a20617070726f76616c20746f2063757272656e74206f776e6560408201527f7200000000000000000000000000000000000000000000000000000000000000606082015260800190565b60208082526031908201527f4552433732313a207472616e736665722063616c6c6572206973206e6f74206f60408201527f776e6572206e6f7220617070726f766564000000000000000000000000000000606082015260800190565b90815260200190565b60008219821115611337576113376113fd565b500190565b60008261134b5761134b611413565b500490565b600082821015611362576113626113fd565b500390565b60005b8381101561138257818101518382015260200161136a565b8381111561060f5750506000910152565b6002810460018216806113a757607f821691505b602082108114156113c857634e487b7160e01b600052602260045260246000fd5b50919050565b60006000198214156113e2576113e26113fd565b5060010190565b6000826113f8576113f8611413565b500690565b634e487b7160e01b600052601160045260246000fd5b634e487b7160e01b600052601260045260246000fd5b634e487b7160e01b600052604160045260246000fd5b6001600160e01b03198116811461145557600080fd5b5056fea26469706673582212200dcdb95e1abb8b9a6677c06c2c1323e20c09e536d903df1b8d3f9f2d104e382b64736f6c63430008000033",
  "linkReferences": {},
  "deployedLinkReferences": {}
}