{
  "_format": "hh-sol-artifact-1",
  "contractName": "Withdraw",
  "sourceName": "contracts/CryptobackGorillas.sol",
  "abi": [
    {
      "inputs": [],
      "stateMutability": "nonpayable",
      "type": "constructor"
    },
    {
      "anonymous": false,
      "inputs": [
        {
          "indexed": true,
          "internalType": "address",
          "name": "previousOwner",
          "type": "address"
        },
        {
          "indexed": true,
          "internalType": "address",
          "name": "newOwner",
          "type": "address"
        }
      ],
      "name": "OwnershipTransferred",
      "type": "event"
    },
    {
      "inputs": [],
      "name": "owner",
      "outputs": [
        {
          "internalType": "address",
          "name": "",
          "type": "address"
        }
      ],
      "stateMutability": "view",
      "type": "function"
    },
    {
      "inputs": [
        {
          "internalType": "uint256",
          "name": "",
          "type": "uint256"
        }
      ],
      "name": "parts",
      "outputs": [
        {
          "internalType": "address",
          "name": "wallet",
          "type": "address"
        },
        {
          "internalType": "uint256",
          "name": "salePart",
          "type": "uint256"
        },
        {
          "internalType": "uint256",
          "name": "royaltiesPart",
          "type": "uint256"
        }
      ],
      "stateMutability": "view",
      "type": "function"
    },
    {
      "inputs": [],
      "name": "renounceOwnership",
      "outputs": [],
      "stateMutability": "nonpayable",
      "type": "function"
    },
    {
      "inputs": [],
      "name": "shareRoyaltiesPart",
      "outputs": [],
      "stateMutability": "nonpayable",
      "type": "function"
    },
    {
      "inputs": [],
      "name": "shareSalesPart",
      "outputs": [],
      "stateMutability": "nonpayable",
      "type": "function"
    },
    {
      "inputs": [
        {
          "internalType": "address",
          "name": "newOwner",
          "type": "address"
        }
      ],
      "name": "transferOwnership",
      "outputs": [],
      "stateMutability": "nonpayable",
      "type": "function"
    },
    {
      "stateMutability": "payable",
      "type": "receive"
    }
  ],
  "bytecode": "0x608060405234801561001057600080fd5b5061002161001c610204565b610208565b604080516060808201835273e21fa9e7d72d1a2dc163d46fb033839e0f678eed825261014d6020808401828152848601838152600180548082018255600082815297517fb10e2d527612073b26eecdfd717e6a320cf44b4afac2b0732d9fcbe2b7fa0cf6600392830281810180546001600160a01b03199081166001600160a01b039586161790915596517fb10e2d527612073b26eecdfd717e6a320cf44b4afac2b0732d9fcbe2b7fa0cf78083019190915595517fb10e2d527612073b26eecdfd717e6a320cf44b4afac2b0732d9fcbe2b7fa0cf8918201558b51808b018d52733a78c8511c27b19cf5eb86ece96e76551a0cd2d581528089018a8152818e018b815287548089018955888f52925192870280860180548c169488169490941790935590518289015551908201558b51808b018d5273332d458ba4f0f2dc5d9523bbf2149358c0560f0e81528089018a8152818e019a8b5286548088018855878e52915191860280850180548b169387169390931790925551818801559851988101989098558a519889018b5273feed5e1afb9d8911c3950b696add9ea40836b1648952958801838152998801838152835480850185559390995296519102938401805490931695169490941790559351918401919091559051910155610258565b3390565b600080546001600160a01b038381166001600160a01b0319831681178455604051919092169283917f8be0079c531659141344cd1fd0a4f28419497f9722a3daafe3b4186f6b6457e09190a35050565b61095f806102676000396000f3fe6080604052600436106100695760003560e01c80638da5cb5b116100435780638da5cb5b146100b6578063c9eb4662146100e1578063f2fde38b1461011057610070565b806340f9bbe21461007557806346002b061461008c578063715018a6146100a157610070565b3661007057005b600080fd5b34801561008157600080fd5b5061008a610130565b005b34801561009857600080fd5b5061008a6102b0565b3480156100ad57600080fd5b5061008a610407565b3480156100c257600080fd5b506100cb610452565b6040516100d891906106b4565b60405180910390f35b3480156100ed57600080fd5b506101016100fc366004610699565b610461565b6040516100d8939291906106c8565b34801561011c57600080fd5b5061008a61012b366004610672565b61049e565b61013861050c565b6001600160a01b0316610149610452565b6001600160a01b0316146101785760405162461bcd60e51b815260040161016f906107da565b60405180910390fd5b47806101965760405162461bcd60e51b815260040161016f90610846565b60005b60015460ff8216101561029b57600060018260ff16815481106101cc57634e487b7160e01b600052603260045260246000fd5b90600052602060002090600302016001015411156102895761028960018260ff168154811061020b57634e487b7160e01b600052603260045260246000fd5b906000526020600020906003020160000160009054906101000a90046001600160a01b03166102846103e861027e60018660ff168154811061025d57634e487b7160e01b600052603260045260246000fd5b9060005260206000209060030201600101548761051090919063ffffffff16565b9061055e565b610589565b80610293816108f3565b915050610199565b506102ad6102a7610452565b47610589565b50565b6102b861050c565b6001600160a01b03166102c9610452565b6001600160a01b0316146102ef5760405162461bcd60e51b815260040161016f906107da565b478061030d5760405162461bcd60e51b815260040161016f9061087d565b60005b60015460ff8216101561029b57600060018260ff168154811061034357634e487b7160e01b600052603260045260246000fd5b90600052602060002090600302016002015411156103f5576103f560018260ff168154811061038257634e487b7160e01b600052603260045260246000fd5b906000526020600020906003020160000160009054906101000a90046001600160a01b03166102846103e861027e60018660ff16815481106103d457634e487b7160e01b600052603260045260246000fd5b9060005260206000209060030201600201548761051090919063ffffffff16565b806103ff816108f3565b915050610310565b61040f61050c565b6001600160a01b0316610420610452565b6001600160a01b0316146104465760405162461bcd60e51b815260040161016f906107da565b610450600061060a565b565b6000546001600160a01b031690565b6001818154811061047157600080fd5b60009182526020909120600390910201805460018201546002909201546001600160a01b03909116925083565b6104a661050c565b6001600160a01b03166104b7610452565b6001600160a01b0316146104dd5760405162461bcd60e51b815260040161016f906107da565b6001600160a01b0381166105035760405162461bcd60e51b815260040161016f906106e9565b6102ad8161060a565b3390565b60008261051f57506000610558565b600061052b83856108d4565b90508261053885836108b4565b146105555760405162461bcd60e51b815260040161016f9061077d565b90505b92915050565b600080821161057f5760405162461bcd60e51b815260040161016f90610746565b61055582846108b4565b6000826001600160a01b0316826040516105a2906106b1565b60006040518083038185875af1925050503d80600081146105df576040519150601f19603f3d011682016040523d82523d6000602084013e6105e4565b606091505b50509050806106055760405162461bcd60e51b815260040161016f9061080f565b505050565b600080546001600160a01b038381167fffffffffffffffffffffffff0000000000000000000000000000000000000000831681178455604051919092169283917f8be0079c531659141344cd1fd0a4f28419497f9722a3daafe3b4186f6b6457e09190a35050565b600060208284031215610683578081fd5b81356001600160a01b0381168114610555578182fd5b6000602082840312156106aa578081fd5b5035919050565b90565b6001600160a01b0391909116815260200190565b6001600160a01b039390931683526020830191909152604082015260600190565b60208082526026908201527f4f776e61626c653a206e6577206f776e657220697320746865207a65726f206160408201527f6464726573730000000000000000000000000000000000000000000000000000606082015260800190565b6020808252601a908201527f536166654d6174683a206469766973696f6e206279207a65726f000000000000604082015260600190565b60208082526021908201527f536166654d6174683a206d756c7469706c69636174696f6e206f766572666c6f60408201527f7700000000000000000000000000000000000000000000000000000000000000606082015260800190565b6020808252818101527f4f776e61626c653a2063616c6c6572206973206e6f7420746865206f776e6572604082015260600190565b60208082526010908201527f5472616e73666572206661696c65642e00000000000000000000000000000000604082015260600190565b60208082526011908201527f53616c65732042616c616e6365203d2030000000000000000000000000000000604082015260600190565b60208082526014908201527f436f6e74726163742042616c616e6365203d2030000000000000000000000000604082015260600190565b6000826108cf57634e487b7160e01b81526012600452602481fd5b500490565b60008160001904831182151516156108ee576108ee610913565b500290565b600060ff821660ff81141561090a5761090a610913565b60010192915050565b634e487b7160e01b600052601160045260246000fdfea2646970667358221220d5598f31ffd4cd5ee2692a1f9c4969fe970409c99d89832333e08c2baf2d20a764736f6c63430008000033",
  "linkReferences": {},
  "deployedLinkReferences": {}
}